:020000040000FA
:040000006AEF3AF079
:1074CF000100000001CF0EF66E740EF76E000EF87D
:1074DF006E00EE0CF010EE05F00900F5CFEEFFE5B3
:1074EF0050E150FAE1000EF86E00017FEF3AF00024
:1074FF000E956E000E8C6E938E938CF19E81BE8BCB
:10750F00EF3AF08DEF3AF0BAEF3AF0820E0A6EDEF4
:10751F000EE82EFED70A2EFCD7102A070E1018D809
:10752F00A49CEF3AF09EEF3AF0BAEF3AF0010E104A
:10753F006EBAEF3AF0E1EC3AF086EF3AF043EC3CFA
:10754F00F086EF3AF092EC3BF086EF3AF008EC3D24
:10755F00F086EF3AF0DEEC3EF086EF3AF0E1EC3DEC
:10756F00F086EF3AF010500A6E0B6A0B50000AD8F3
:10757F00B4C4EF3AF086EF3AF00A50010AD8B4A239
:10758F00EF3AF0030AD8B4A6EF3AF0010AD8B4AA3A
:10759F00EF3AF0070AD8B4AEEF3AF0010AD8B4B216
:1075AF00EF3AF0030AD8B4B6EF3AF086EF3AF000AC
:1075BF00EF00F0000E046E000E036E04BEF1EF3A02
:1075CF00F0045009E1080E035CD8A0F1EF3AF0F394
:1075DF00EF3AF0F5EF3AF091EF3BF003C001F00115
:1075EF000E026E012AFEEF3AF0D8900236012EFC01
:1075FF00EF3AF002508C6E0C040D100E100F10D8D5
:10760F00A40CEF3BF00EEF3BF017EF3BF0820E01B7
:10761F006EDE0EE82EFED7012EFCD765EF3BF00293
:10762F000E0C180D100E100F10D8A421EF3BF023E5
:10763F00EF3BF031EF3BF0020E026E040E016EBA1B
:10764F000EE82EFED7012EFCD7022EFAD700D065FA
:10765F00EF3BF0030E0C180D100E100F10D8A43BBB
:10766F00EF3BF03DEF3BF04BEF3BF0030E026E08AC
:10767F000E016E770EE82EFED7012EFCD7022EFAE2
:10768F00D700F065EF3BF0040E0C180D100E100F25
:10769F0010D8A455EF3BF057EF3BF065EF3BF005EB
:1076AF000E026E0F0E016EF10EE82EFED7012EFCAC
:1076BF00D7022EFAD700F065EF3BF081BC6AEF3BA3
:1076CF00F06CEF3BF08DEF3BF0820E016EDE0EE8BB
:1076DF002EFED7012EFCD7010E0C26000E0D220E0A
:1076EF00220F22050E0C180D100E100F10D8A483A8
:1076FF00EF3BF085EF3BF08DEF3BF0010E0C6E0092
:10770F000E0D6E000E0E6E000E0F6E034A042AE56C
:10771F00EF3AF01200000E046E000E036E04BEA2CC
:10772F00EF3BF0045009E1090E035CD8A0A2EF3B38
:10773F00F0A4EF3BF0A6EF3BF042EF3CF003C001AB
:10774F00F0010E026E012AAFEF3BF0D89002360126
:10775F002EADEF3BF002048C6E0C040D100E100FCB
:10776F0010D8A4BDEF3BF0BFEF3BF0C8EF3BF0826A
:10777F000E016EDE0EE82EFED7012EFCD716EF3C63
:10778F00F0020E0C180D100E100F10D8A4D2EF3BF4
:10779F00F0D4EF3BF0E2EF3BF0020E026E040E016D
:1077AF006EBA0EE82EFED7012EFCD7022EFAD700A6
:1077BF00D016EF3CF0030E0C180D100E100F10D852
:1077CF00A4ECEF3BF0EEEF3BF0FCEF3BF0030E02CF
:1077DF006E080E016E770EE82EFED7012EFCD70233
:1077EF002EFAD700F016EF3CF0040E0C180D100E09
:1077FF00100F10D8A406EF3CF008EF3CF016EF3C4A
:10780F00F0050E026E0F0E016EF10EE82EFED7017F
:10781F002EFCD7022EFAD700F016EF3CF081BC1BDE
:10782F00EF3CF01DEF3CF03EEF3CF0820E016EDEC0
:10783F000EE82EFED7012EFCD7010E0C26000E0DE2
:10784F00220E220F22050E0C180D100E100F10D83D
:10785F00A434EF3CF036EF3CF03EEF3CF0010E0C61
:10786F006E000E0D6E000E0E6E000E0F6E034A04AC
:10787F002A96EF3BF01200000E086E000E076E0006
:10788F000E066E070E056E08BE57EF3CF008500946
:10789F00E1080E075CD8A057EF3CF059EF3CF05BC6
:1078AF00EF3CF007EF3DF005C001F0010E026E0155
:1078BF002A64EF3CF0D8900236012E62EF3CF007BD
:1078CF00C003F0010E046E032A70EF3CF0D8900451
:1078DF0036032E6EEF3CF0045002248C6E0C040D18
:1078EF00100E100F10D8A47FEF3CF081EF3CF08A00
:1078FF00EF3CF0820E016EDE0EE82EFED7012EFC5D
:10790F00D7D8EF3CF0020E0C180D100E100F10D838
:10791F00A494EF3CF096EF3CF0A4EF3CF0020E0283
:10792F006E040E016EBA0EE82EFED7012EFCD702A2
:10793F002EFAD700D0D8EF3CF0030E0C180D100E16
:10794F00100F10D8A4AEEF3CF0B0EF3CF0BEEF3C00
:10795F00F0030E026E080E016E770EE82EFED701B1
:10796F002EFCD7022EFAD700F0D8EF3CF0040E0C05
:10797F00180D100E100F10D8A4C8EF3CF0CAEF3C32
:10798F00F0D8EF3CF0050E026E0F0E016EF10EE80F
:10799F002EFED7012EFCD7022EFAD700F0D8EF3CDF
:1079AF00F081BCDDEF3CF0DFEF3CF000EF3DF0820B
:1079BF000E016EDE0EE82EFED7012EFCD7010E0C47
:1079CF0026000E0D220E220F22050E0C180D100E82
:1079DF00100F10D8A4F6EF3CF0F8EF3CF000EF3D9D
:1079EF00F0010E0C6E000E0D6E000E0E6E000E0FDF
:1079FF006E074A082A0506D8A006064BEF3CF01280
:107A0F0000000E076E000E066E000E096E000E08C7
:107A1F006E000E056E000E046E065008248C6E0468
:107A2F00C001F0010E026E000E036E012A23EF3D1E
:107A3F00F0D89002360336012E20EF3DF00F0E02E4
:107A4F0016000E0316025006260350072204500795
:107A5F0008016E010E026E000E036E012A3BEF3D10
:107A6F00F0D89002360336012E38EF3DF0F00E02BB
:107A7F0016000E031602500826035009220C040D9F
:107A8F00100E100F10D8A44FEF3DF051EF3DF05AEC
:107A9F00EF3DF0820E016EDE0EE82EFED7012EFCBA
:107AAF00D7A8EF3DF0020E0C180D100E100F10D8C6
:107ABF00A464EF3DF066EF3DF074EF3DF0020E026F
:107ACF006E040E016EBA0EE82EFED7012EFCD70201
:107ADF002EFAD700D0A8EF3DF0030E0C180D100EA4
:107AEF00100F10D8A47EEF3DF080EF3DF08EEF3DEC
:107AFF00F0030E026E080E016E770EE82EFED70110
:107B0F002EFCD7022EFAD700F0A8EF3DF0040E0C92
:107B1F00180D100E100F10D8A498EF3DF09AEF3DEE
:107B2F00F0A8EF3DF0050E026E0F0E016EF10EE89C
:107B3F002EFED7012EFCD7022EFAD700F0A8EF3D6C
:107B4F00F081BCADEF3DF0AFEF3DF0D0EF3DF082F7
:107B5F000E016EDE0EE82EFED7012EFCD7010E0CA5
:107B6F0026000E0D220E220F22050E0C180D100EE0
:107B7F00100F10D8A4C6EF3DF0C8EF3DF0D0EF3D89
:107B8F00F0010E0C6E000E0D6E000E0E6E000E0F3D
:107B9F006E044A052A05BEDEEF3DF0055009E105EA
:107BAF000E045CD8A0DEEF3DF0E0EF3DF014EF3DAA
:107BBF00F01200000E096E000E086E000E056E002A
:107BCF000E046E000E076E000E066E08C08CFF04CA
:107BDF00500510D8A4F6EF3DF0F8EF3DF014EF3E4E
:107BEF00F006B0FDEF3DF0FFEF3DF02FEF3EF0065A
:107BFF00C001F0010E026E000E036E012A0BEF3E64
:107C0F00F0D89002360336012E08EF3EF0025008EE
:107C1F0026035009222FEF3EF006B019EF3EF01B5E
:107C2F00EF3EF02FEF3EF006500708016E010E02F7
:107C3F006E000E036E012A28EF3EF0D89002360335
:107C4F0036012E25EF3EF002500826035009220C74
:107C5F00040D100E100F10D8A438EF3EF03AEF3E7F
:107C6F00F043EF3EF0820E016EDE0EE82EFED701DE
:107C7F002EFCD791EF3EF0020E0C180D100E100FC8
:107C8F0010D8A44DEF3EF04FEF3EF05DEF3EF00207
:107C9F000E026E040E016EBA0EE82EFED7012EFCF8
:107CAF00D7022EFAD700D091EF3EF0030E0C180D2D
:107CBF00100E100F10D8A467EF3EF069EF3EF0776B
:107CCF00EF3EF0030E026E080E016E770EE82EFEE9
:107CDF00D7012EFCD7022EFAD700F091EF3EF00419
:107CEF000E0C180D100E100F10D8A481EF3EF0835C
:107CFF00EF3EF091EF3EF0050E026E0F0E016EF1AA
:107D0F000EE82EFED7012EFCD7022EFAD700F091E7
:107D1F00EF3EF081BC96EF3EF098EF3EF0B9EF3EAC
:107D2F00F0820E016EDE0EE82EFED7012EFCD7017B
:107D3F000E0C26000E0D220E220F22050E0C180D12
:107D4F00100E100F10D8A4AFEF3EF0B1EF3EF0B908
:107D5F00EF3EF0010E0C6E000E0D6E000E0E6E005B
:107D6F000E0F6E064A072A07BEC7EF3EF0075009EF
:107D7F00E1080E065CD8A0C7EF3EF0C9EF3EF0ED6C
:107D8F00EF3DF0000E096E000E086E044A052A053D
:107D9F00BEDBEF3EF0055009E1020E045CD8A0DB1C
:107DAF00EF3EF0DDEF3EF0E9EF3DF01200000E0484
:107DBF006E000E036E04BEEEEF3EF0045009E108B4
:107DCF000E035CD8A0EEEF3EF0F0EF3EF0F2EF3E88
:107DDF00F0FFEF3FF003C001F0010E026E012AFB2E
:107DEF00EF3EF0D8900236012EF9EF3EF002508CA4
:107DFF006E0C040D100E100F10D8A409EF3FF00BEE
:107E0F00EF3FF014EF3FF0820E016EDE0EE82EFE14
:107E1F00D7012EFCD762EF3FF0020E0C180D100E9B
:107E2F00100F10D8A41EEF3FF020EF3FF02EEF3FC2
:107E3F00F0020E026E040E016EBA0EE82EFED7018E
:107E4F002EFCD7022EFAD700D062EF3FF0030E0CB4
:107E5F00180D100E100F10D8A438EF3FF03AEF3F67
:107E6F00F048EF3FF0030E026E080E016E770EE83A
:107E7F002EFED7012EFCD7022EFAD700F062EF3F6D
:107E8F00F0040E0C180D100E100F10D8A452EF3F67
:107E9F00F054EF3FF062EF3FF0050E026E0F0E0150
:107EAF006EF10EE82EFED7012EFCD7022EFAD70068
:107EBF00F062EF3FF003500708016E010E026E01F2
:107ECF002A6CEF3FF0D8900236012E6AEF3FF00296
:107EDF00508C6E0C040D100E100F10D8A47AEF3FBB
:107EEF00F07CEF3FF085EF3FF0820E016EDE0EE883
:107EFF002EFED7012EFCD7D3EF3FF0020E0C180D3C
:107F0F00100E100F10D8A48FEF3FF091EF3FF09F9E
:107F1F00EF3FF0020E026E040E016EBA0EE82EFE57
:107F2F00D7012EFCD7022EFAD700D0D3EF3FF003A4
:107F3F000E0C180D100E100F10D8A4A9EF3FF0ABB8
:107F4F00EF3FF0B9EF3FF0030E026E080E016E77B0
:107F5F000EE82EFED7012EFCD7022EFAD700F0D353
:107F6F00EF3FF0040E0C180D100E100F10D8A4C315
:107F7F00EF3FF0C5EF3FF0D3EF3FF0050E026E0F6E
:107F8F000E016EF10EE82EFED7012EFCD7022EFA4F
:107F9F00D700F0D3EF3FF081BCD8EF3FF0DAEF3FDF
:107FAF00F0FBEF3FF0820E016EDE0EE82EFED701E2
:107FBF002EFCD7010E0C26000E0D220E220F2205CD
:107FCF000E0C180D100E100F10D8A4F1EF3FF0F398
:107FDF00EF3FF0FBEF3FF0010E0C6E000E0D6E0049
:107FEF000E0E6E000E0F6E034A042AE2EF3EF012E1
:017FFF000081
:020000040020DA
:08000000FFFFFFFFFFFFFFFF00
:020000040030CA
:0E00000000091F1EFF8181FF0FC00FE00F409F
:00000001FF
