:020000040000FA
:04000000A3EF39F041
:107341000100000001410EF66E730EF76E000EF89B
:107351006E00EE0CF010EE05F00900F5CFEEFFE542
:1073610050E150FAE1000EF86E0001B8EF39F0007B
:107371000E956E000E8C6E938E938CF19ED7EF3925
:10738100F0FEEC39F0D7EF39F098EC3BF0D7EF395C
:10739100F0CBEC3AF0D7EF39F079EC3CF0D7EF399C
:1073A100F080EC3EF0D7EF39F06EEC3DF010500A72
:1073B1006E0B6A0B50000AD8B4E1EF39F0D7EF3900
:1073C100F00A50010AD8B4C1EF39F0030AD8B4C5A4
:1073D100EF39F0010AD8B4C9EF39F0070AD8B4CDB2
:1073E100EF39F0010AD8B4D1EF39F0030AD8B4D596
:1073F100EF39F0D7EF39F000EF00F0000E046E0026
:107401000E036E04BE0EEF3AF0045009E1080E03BC
:107411005CD8A00EEF3AF010EF3AF012EF3AF0CA52
:10742100EF3AF003C001F0010E026E012A1BEF3AA0
:10743100F0D8900236012E19EF3AF002508C6E0C02
:10744100040D100E100F10D8A429EF3AF02BEF3ACB
:10745100F034EF3AF0820E016EDE0EE82EFED70117
:107461002EFCD782EF3AF0020E0C180D100E100F01
:1074710010D8A43EEF3AF040EF3AF04EEF3AF00266
:107481000E026E040E016EBA0EE82EFED7012EFC1E
:10749100D7022EFAD700D082EF3AF0030E0C180D66
:1074A100100E100F10D8A458EF3AF05AEF3AF068C6
:1074B100EF3AF0030E026E080E016E770EE82EFE13
:1074C100D7012EFCD7022EFAD700F082EF3AF00452
:1074D1000E0C180D100E100F10D8A472EF3AF074A4
:1074E100EF3AF082EF3AF0050E026E0F0E016EF1E7
:1074F1000EE82EFED7012EFCD7022EFAD700F0821D
:10750100EF3AF081BC87EF3AF089EF3AF0AAEF3A0F
:10751100F0820E016EDE0EE82EFED7012EFCD701A1
:107521000E0C26000E0D220E220F22050E0C180D38
:10753100100E100F10D8A4A0EF3AF0A2EF3AF0AA63
:10754100EF3AF0010E0C6E000E0D6E000E0E6E0085
:107551000E0F6E81BEAFEF3AF0B1EF3AF0C6EF3ADF
:10756100F0820E016EDE0EE82EFED7012EFCD71042
:107571002A070E1018D8A4C0EF3AF0C2EF3AF0CAA9
:10758100EF3AF0010E106ECAEF3AF0034A042A02F4
:10759100EF3AF01200000E046E000E036E04BEDB23
:1075A100EF3AF0045009E1090E035CD8A0DBEF3A91
:1075B100F0DDEF3AF0DFEF3AF097EF3BF003C00177
:1075C100F0010E026E012AE8EF3AF0D8900236017E
:1075D1002EE6EF3AF002048C6E0C040D100E100F23
:1075E10010D8A4F6EF3AF0F8EF3AF001EF3BF08251
:1075F1000E016EDE0EE82EFED7012EFCD74FEF3BBB
:10760100F0020E0C180D100E100F10D8A40BEF3B4A
:10761100F00DEF3BF01BEF3BF0020E026E040E018A
:107621006EBA0EE82EFED7012EFCD7022EFAD70035
:10763100D04FEF3BF0030E0C180D100E100F10D8A9
:10764100A425EF3BF027EF3BF035EF3BF0030E02B3
:107651006E080E016E770EE82EFED7012EFCD702C2
:107661002EFAD700F04FEF3BF0040E0C180D100E60
:10767100100F10D8A43FEF3BF041EF3BF04FEF3B31
:10768100F0050E026E0F0E016EF10EE82EFED7010F
:107691002EFCD7022EFAD700F04FEF3BF081BC54FD
:1076A100EF3BF056EF3BF077EF3BF0820E016EDEE1
:1076B1000EE82EFED7012EFCD7010E0C26000E0D72
:1076C100220E220F22050E0C180D100E100F10D8CD
:1076D100A46DEF3BF06FEF3BF077EF3BF0010E0C49
:1076E1006E000E0D6E000E0E6E000E0F6E81BE7CD2
:1076F100EF3BF07EEF3BF093EF3BF0820E016EDE4D
:107701000EE82EFED7012EFCD7102A070E1018D82E
:10771100A48DEF3BF08FEF3BF097EF3BF0010E10A4
:107721006E97EF3BF0034A042ACFEF3AF0120000C4
:107731000E086E000E076E000E066E070E056E082F
:10774100BEACEF3BF0085009E1080E075CD8A0ACD5
:10775100EF3BF0AEEF3BF0B0EF3BF078EF3CF005E4
:10776100C001F0010E026E012AB9EF3BF0D8900280
:1077710036012EB7EF3BF007C003F0010E046E0394
:107781002AC5EF3BF0D8900436032EC3EF3BF0043B
:107791005002248C6E0C040D100E100F10D8A4D4BE
:1077A100EF3BF0D6EF3BF0DFEF3BF0820E016EDEF8
:1077B1000EE82EFED7012EFCD72DEF3CF0020E0C69
:1077C100180D100E100F10D8A4E9EF3BF0EBEF3BB2
:1077D100F0F9EF3BF0020E026E040E016EBA0EE8F4
:1077E1002EFED7012EFCD7022EFAD700D02DEF3C6A
:1077F100F0030E0C180D100E100F10D8A403EF3C5F
:10780100F005EF3CF013EF3CF0030E026E080E01A1
:107811006E770EE82EFED7012EFCD7022EFAD70086
:10782100F02DEF3CF0040E0C180D100E100F10D8B7
:10783100A41DEF3CF01FEF3CF02DEF3CF0050E02D4
:107841006E0F0E016EF10EE82EFED7012EFCD7024F
:107851002EFAD700F02DEF3CF081BC32EF3CF03432
:10786100EF3CF055EF3CF0820E016EDE0EE82EFE8D
:10787100D7012EFCD7010E0C26000E0D220E220F71
:1078810022050E0C180D100E100F10D8A44BEF3C52
:10789100F04DEF3CF055EF3CF0010E0C6E000E0D7B
:1078A1006E000E0E6E000E0F6E81BE5AEF3CF05C44
:1078B100EF3CF071EF3CF0820E016EDE0EE82EFE21
:1078C100D7012EFCD7102A070E1018D8A46BEF3C55
:1078D100F06DEF3CF078EF3CF0010E106E78EF3C6C
:1078E100F0074A082A0506D8A00606A0EF3BF012C9
:1078F10000000E076E000E066E000E096E000E08E7
:107901006E000E056E000E046E065008248C6E0487
:10791100C001F0010E026E000E036E012A94EF3CCD
:10792100F0D89002360336012E91EF3CF00F0E0293
:1079310016000E03160250062603500722045007B4
:1079410008016E010E026E000E036E012AACEF3CBF
:10795100F0D89002360336012EA9EF3CF0F00E026A
:1079610016000E031602500826035009220C040DBE
:10797100100E100F10D8A4C0EF3CF0C2EF3CF0CBBA
:10798100EF3CF0820E016EDE0EE82EFED7012EFCDA
:10799100D719EF3DF0020E0C180D100E100F10D874
:1079A100A4D5EF3CF0D7EF3CF0E5EF3CF0020E023E
:1079B1006E040E016EBA0EE82EFED7012EFCD70220
:1079C1002EFAD700D019EF3DF0030E0C180D100E52
:1079D100100F10D8A4EFEF3CF0F1EF3CF0FFEF3CBB
:1079E100F0030E026E080E016E770EE82EFED7012F
:1079F1002EFCD7022EFAD700F019EF3DF0040E0C41
:107A0100180D100E100F10D8A409EF3DF00BEF3D2B
:107A1100F019EF3DF0050E026E0F0E016EF10EE84A
:107A21002EFED7012EFCD7022EFAD700F019EF3D1A
:107A3100F081BC1EEF3DF020EF3DF041EF3DF082C3
:107A41000E016EDE0EE82EFED7012EFCD7010E0CC4
:107A510026000E0D220E220F22050E0C180D100EFF
:107A6100100F10D8A437EF3DF039EF3DF041EF3D55
:107A7100F0010E0C6E000E0D6E000E0E6E000E0F5C
:107A81006E81BE46EF3DF048EF3DF05DEF3DF08287
:107A91000E016EDE0EE82EFED7012EFCD7102A074E
:107AA1000E1018D8A457EF3DF059EF3DF06DEF3DA2
:107AB100F0010E106E6DEF3DF0044A052A05BE6B14
:107AC100EF3DF0055009E1050E045CD8A06BEF3DD8
:107AD100F06DEF3DF085EF3CF01200000E096E00F5
:107AE1000E086E000E056E000E046E000E076E008D
:107AF1000E066E08C08CFF06B081EF3DF083EF3DAE
:107B0100F0B5EF3DF004500510D8A48AEF3DF08C9C
:107B1100EF3DF0A1EF3DF006C001F0010E026E0055
:107B21000E036E012A98EF3DF0D89002360336011C
:107B31002E95EF3DF00250082603500922B5EF3D86
:107B4100F006500708016E010E026E000E036E0171
:107B51002AAEEF3DF0D89002360336012EABEF3D51
:107B6100F002500826035009220C040D100E100FCC
:107B710010D8A4BEEF3DF0C0EF3DF0C9EF3DF0825B
:107B81000E016EDE0EE82EFED7012EFCD717EF3E5A
:107B9100F0020E0C180D100E100F10D8A4D3EF3DEB
:107BA100F0D5EF3DF0E3EF3DF0020E026E040E0161
:107BB1006EBA0EE82EFED7012EFCD7022EFAD700A0
:107BC100D017EF3EF0030E0C180D100E100F10D849
:107BD100A4EDEF3DF0EFEF3DF0FDEF3DF0030E02C0
:107BE1006E080E016E770EE82EFED7012EFCD7022D
:107BF1002EFAD700F017EF3EF0040E0C180D100E00
:107C0100100F10D8A407EF3EF009EF3EF017EF3E3A
:107C1100F0050E026E0F0E016EF10EE82EFED70179
:107C21002EFCD7022EFAD700F017EF3EF081BC1CD4
:107C3100EF3EF01EEF3EF03FEF3EF0820E016EDEB2
:107C41000EE82EFED7012EFCD7010E0C26000E0DDC
:107C5100220E220F22050E0C180D100E100F10D837
:107C6100A435EF3EF037EF3EF03FEF3EF0010E0C52
:107C71006E000E0D6E000E0E6E000E0F6E81BE4474
:107C8100EF3EF046EF3EF05BEF3EF0820E016EDE1E
:107C91000EE82EFED7012EFCD7102A070E1018D899
:107CA100A455EF3EF057EF3EF07FEF3EF0010E108E
:107CB1006E7FEF3EF0064A072A07BE69EF3EF007E6
:107CC1005009E1080E065CD8A069EF3EF06BEF3E6B
:107CD100F07AEF3DF0000E096E000E086E044A05C1
:107CE1002A05BE7DEF3EF0055009E1020E045CD885
:107CF100A07DEF3EF07FEF3EF076EF3DF012000009
:107D01000E046E000E036E04BE90EF3EF0045009A7
:107D1100E1080E035CD8A090EF3EF092EF3EF094A4
:107D2100EF3EF0FFEF3FF003C001F0010E026E01E4
:107D31002A9DEF3EF0D8900236012E9BEF3EF002D5
:107D4100508C6E0C040D100E100F10D8A4ABEF3E2A
:107D5100F0ADEF3EF0B6EF3EF0820E016EDE0EE8C2
:107D61002EFED7012EFCD704EF3FF0020E0C180DAA
:107D7100100E100F10D8A4C0EF3EF0C2EF3EF0D0AD
:107D8100EF3EF0020E026E040E016EBA0EE82EFEF8
:107D9100D7012EFCD7022EFAD700D004EF3FF00313
:107DA1000E0C180D100E100F10D8A4DAEF3EF0DCF7
:107DB100EF3EF0EAEF3EF0030E026E080E016E7721
:107DC1000EE82EFED7012EFCD7022EFAD700F004C2
:107DD100EF3FF0040E0C180D100E100F10D8A4F484
:107DE100EF3EF0F6EF3EF004EF3FF0050E026E0FAE
:107DF1000E016EF10EE82EFED7012EFCD7022EFAEF
:107E0100D700F004EF3FF081BC09EF3FF00BEF3FEB
:107E1100F02CEF3FF0820E016EDE0EE82EFED70150
:107E21002EFCD7010E0C26000E0D220E220F22056C
:107E31000E0C180D100E100F10D8A422EF3FF024D5
:107E4100EF3FF02CEF3FF0010E0C6E000E0D6E00B7
:107E51000E0E6E000E0F6E81BE31EF3FF033EF3F1D
:107E6100F048EF3FF0820E016EDE0EE82EFED701E4
:107E71002EFCD7102A070E1018D8A442EF3FF04469
:107E8100EF3FF0FFEF3FF0010E106EFFEF3FF00309
:107E9100500708016E010E026E012A52EF3FF0D821
:107EA100900236012E50EF3FF002508C6E0C040D03
:107EB100100E100F10D8A460EF3FF062EF3FF06B8F
:107EC100EF3FF0820E016EDE0EE82EFED7012EFC92
:107ED100D7B9EF3FF0020E0C180D100E100F10D88D
:107EE100A475EF3FF077EF3FF085EF3FF0020E0210
:107EF1006E040E016EBA0EE82EFED7012EFCD702DB
:107F01002EFAD700D0B9EF3FF0030E0C180D100E6A
:107F1100100F10D8A48FEF3FF091EF3FF09FEF3F8C
:107F2100F0030E026E080E016E770EE82EFED701E9
:107F31002EFCD7022EFAD700F0B9EF3FF0040E0C59
:107F4100180D100E100F10D8A4A9EF3FF0ABEF3FA2
:107F5100F0B9EF3FF0050E026E0F0E016EF10EE863
:107F61002EFED7012EFCD7022EFAD700F0B9EF3F33
:107F7100F081BCBEEF3FF0C0EF3FF0E1EF3FF08298
:107F81000E016EDE0EE82EFED7012EFCD7010E0C7F
:107F910026000E0D220E220F22050E0C180D100EBA
:107FA100100F10D8A4D7EF3FF0D9EF3FF0E1EF3F2A
:107FB100F0010E0C6E000E0D6E000E0E6E000E0F17
:107FC1006E81BEE6EF3FF0E8EF3FF0FBEF3FF0825E
:107FD1000E016EDE0EE82EFED7012EFCD7102A0709
:107FE1000E1018D8A4F7EF3FF0F9EF3FF0FFEF3F85
:0F7FF100F044EF3FF0034A042A84EF3EF0120001
:020000040020DA
:08000000FFFFFFFFFFFFFFFF00
:020000040030CA
:0E00000000091F1EFF8181FF0FC00FE00F409F
:00000001FF
